{
  "contractName": "Moment",
  "abi": [
    {
      "inputs": [
        {
          "name": "",
          "type": "address"
        }
      ],
      "payable": false,
      "stateMutability": "nonpayable",
      "type": "constructor"
    },
    {
      "constant": true,
      "inputs": [],
      "name": "getAddress",
      "outputs": [
        {
          "name": "addr",
          "type": "address"
        }
      ],
      "payable": false,
      "stateMutability": "view",
      "type": "function"
    },
    {
      "constant": false,
      "inputs": [
        {
          "name": "name",
          "type": "bytes16"
        }
      ],
      "name": "initMoment",
      "outputs": [
        {
          "name": "success",
          "type": "bool"
        }
      ],
      "payable": false,
      "stateMutability": "nonpayable",
      "type": "function"
    },
    {
      "constant": false,
      "inputs": [
        {
          "name": "ipfsHash",
          "type": "bytes"
        },
        {
          "name": "name",
          "type": "bytes16"
        }
      ],
      "name": "postNewMoment",
      "outputs": [
        {
          "name": "success",
          "type": "bool"
        }
      ],
      "payable": false,
      "stateMutability": "nonpayable",
      "type": "function"
    },
    {
      "constant": true,
      "inputs": [
        {
          "name": "index",
          "type": "uint256"
        }
      ],
      "name": "getMomentsLikes",
      "outputs": [
        {
          "name": "users",
          "type": "bytes16[]"
        }
      ],
      "payable": false,
      "stateMutability": "view",
      "type": "function"
    },
    {
      "constant": true,
      "inputs": [
        {
          "name": "index",
          "type": "uint256"
        }
      ],
      "name": "getMomentsReplys",
      "outputs": [
        {
          "name": "replys",
          "type": "bytes32[]"
        }
      ],
      "payable": false,
      "stateMutability": "view",
      "type": "function"
    },
    {
      "constant": true,
      "inputs": [
        {
          "name": "name",
          "type": "bytes16"
        }
      ],
      "name": "getUserLikes",
      "outputs": [
        {
          "name": "indexs",
          "type": "uint256[]"
        }
      ],
      "payable": false,
      "stateMutability": "view",
      "type": "function"
    },
    {
      "constant": false,
      "inputs": [
        {
          "name": "name",
          "type": "bytes16"
        },
        {
          "name": "index",
          "type": "uint256"
        }
      ],
      "name": "LikeThisMoment",
      "outputs": [
        {
          "name": "success",
          "type": "bool"
        }
      ],
      "payable": false,
      "stateMutability": "nonpayable",
      "type": "function"
    },
    {
      "constant": false,
      "inputs": [
        {
          "name": "index",
          "type": "uint256"
        },
        {
          "name": "ipfsHash",
          "type": "bytes32"
        }
      ],
      "name": "replythisMoment",
      "outputs": [
        {
          "name": "success",
          "type": "bool"
        }
      ],
      "payable": false,
      "stateMutability": "nonpayable",
      "type": "function"
    },
    {
      "constant": false,
      "inputs": [
        {
          "name": "name",
          "type": "bytes16"
        },
        {
          "name": "index",
          "type": "uint256"
        }
      ],
      "name": "UnlikeThisMoment",
      "outputs": [
        {
          "name": "success",
          "type": "bool"
        }
      ],
      "payable": false,
      "stateMutability": "nonpayable",
      "type": "function"
    },
    {
      "constant": true,
      "inputs": [],
      "name": "getMomentsCount",
      "outputs": [
        {
          "name": "count",
          "type": "uint256"
        }
      ],
      "payable": false,
      "stateMutability": "view",
      "type": "function"
    },
    {
      "constant": true,
      "inputs": [
        {
          "name": "name",
          "type": "bytes16"
        }
      ],
      "name": "getUserMomentsCount",
      "outputs": [
        {
          "name": "count",
          "type": "uint256"
        }
      ],
      "payable": false,
      "stateMutability": "view",
      "type": "function"
    },
    {
      "constant": true,
      "inputs": [
        {
          "name": "index",
          "type": "uint256"
        }
      ],
      "name": "getMomentsByIndex",
      "outputs": [
        {
          "name": "ipfsHash",
          "type": "bytes"
        }
      ],
      "payable": false,
      "stateMutability": "view",
      "type": "function"
    },
    {
      "constant": true,
      "inputs": [
        {
          "name": "name",
          "type": "bytes16"
        }
      ],
      "name": "getMomentsByUsername",
      "outputs": [
        {
          "name": "ipfsHashs",
          "type": "bytes[]"
        }
      ],
      "payable": false,
      "stateMutability": "view",
      "type": "function"
    },
    {
      "constant": true,
      "inputs": [
        {
          "name": "name",
          "type": "bytes16"
        }
      ],
      "name": "getUserMomentsIndexByUsername",
      "outputs": [
        {
          "name": "indexs",
          "type": "uint256[]"
        }
      ],
      "payable": false,
      "stateMutability": "view",
      "type": "function"
    }
  ],
  "bytecode": "0x60806040523480156200001157600080fd5b50604051602080620020f8833981018060405262000033919081019062000171565b60008060018154018082558091505090600182039060005260206000200160006040805190810160405280600d81526020017f6e6f742d617661696c61626c650000000000000000000000000000000000000081525090919091509080519060200190620000a3929190620000ac565b505050620001d1565b828054600181600116156101000203166002900490600052602060002090601f016020900481019282601f10620000ef57805160ff191683800117855562000120565b8280016001018555821562000120579182015b828111156200011f57825182559160200191906001019062000102565b5b5090506200012f919062000133565b5090565b6200015891905b80821115620001545760008160009055506001016200013a565b5090565b90565b6000620001698251620001bd565b905092915050565b6000602082840312156200018457600080fd5b600062000194848285016200015b565b91505092915050565b600073ffffffffffffffffffffffffffffffffffffffff82169050919050565b6000620001ca826200019d565b9050919050565b611f1780620001e16000396000f3006080604052600436106100d0576000357c0100000000000000000000000000000000000000000000000000000000900463ffffffff168063086a918e146100d55780630f364af3146101125780631120af7d1461013d578063133af45e1461017a57806326a94b5a146101b757806338cc4831146101f45780638971bbae1461021f5780638b8f99cd1461025c5780638d54362b14610299578063a13caa0c146102d6578063b7bbf7d014610313578063bf214d8b14610350578063c5a9989a1461038d578063dd026ab8146103ca575b600080fd5b3480156100e157600080fd5b506100fc60048036036100f79190810190611787565b610407565b6040516101099190611c01565b60405180910390f35b34801561011e57600080fd5b506101276104e3565b6040516101349190611cc0565b60405180910390f35b34801561014957600080fd5b50610164600480360361015f9190810190611840565b6104f3565b6040516101719190611bbd565b60405180910390f35b34801561018657600080fd5b506101a1600480360361019c9190810190611840565b610575565b6040516101ae9190611c3e565b60405180910390f35b3480156101c357600080fd5b506101de60048036036101d991908101906117b0565b610679565b6040516101eb9190611c23565b60405180910390f35b34801561020057600080fd5b50610209610b93565b6040516102169190611b80565b60405180910390f35b34801561022b57600080fd5b5061024660048036036102419190810190611787565b610b9b565b6040516102539190611bdf565b60405180910390f35b34801561026857600080fd5b50610283600480360361027e9190810190611787565b610dda565b6040516102909190611c23565b60405180910390f35b3480156102a557600080fd5b506102c060048036036102bb9190810190611787565b610f2d565b6040516102cd9190611c01565b60405180910390f35b3480156102e257600080fd5b506102fd60048036036102f89190810190611840565b61103f565b60405161030a9190611b9b565b60405180910390f35b34801561031f57600080fd5b5061033a60048036036103359190810190611869565b611103565b6040516103479190611c23565b60405180910390f35b34801561035c57600080fd5b50610377600480360361037291908101906117b0565b61119a565b6040516103849190611c23565b60405180910390f35b34801561039957600080fd5b506103b460048036036103af91908101906117ec565b61134e565b6040516103c19190611c23565b60405180910390f35b3480156103d657600080fd5b506103f160048036036103ec9190810190611787565b611522565b6040516103fe9190611cc0565b60405180910390f35b6060600060016000846fffffffffffffffffffffffffffffffff19166fffffffffffffffffffffffffffffffff191681526020019081526020016000208054905011151561045457600080fd5b60036000836fffffffffffffffffffffffffffffffff19166fffffffffffffffffffffffffffffffff191681526020019081526020016000208054806020026020016040519081016040528092919081815260200182805480156104d757602002820191906000526020600020905b8154815260200190600101908083116104c3575b50505050509050919050565b6000600160008054905003905090565b60606000805490508210151561050857600080fd5b6004600083815260200190815260200160002080548060200260200160405190810160405280929190818152602001828054801561056957602002820191906000526020600020905b81546000191681526020019060010190808311610551575b50505050509050919050565b6060600080549050821015156105c0576040517f08c379a00000000000000000000000000000000000000000000000000000000081526004016105b790611c80565b60405180910390fd5b6000828154811015156105cf57fe5b906000526020600020018054600181600116156101000203166002900480601f01602080910402602001604051908101604052809291908181526020018280546001816001161561010002031660029004801561066d5780601f106106425761010080835404028352916020019161066d565b820191906000526020600020905b81548152906001019060200180831161065057829003601f168201915b50505050509050919050565b600080600080600080549050851015156106c8576040517f08c379a00000000000000000000000000000000000000000000000000000000081526004016106bf90611c80565b60405180910390fd5b600060016000886fffffffffffffffffffffffffffffffff19166fffffffffffffffffffffffffffffffff1916815260200190815260200160002080549050111515610749576040517f08c379a000000000000000000000000000000000000000000000000000000000815260040161074090611ca0565b60405180910390fd5b6000925060036000876fffffffffffffffffffffffffffffffff19166fffffffffffffffffffffffffffffffff19168152602001908152602001600020805490509150600090505b81811015610806578460036000886fffffffffffffffffffffffffffffffff19166fffffffffffffffffffffffffffffffff19168152602001908152602001600020828154811015156107e057fe5b906000526020600020015414156107f957809250610806565b8080600101915050610791565b8290505b600182038110156108ca5760036000876fffffffffffffffffffffffffffffffff19166fffffffffffffffffffffffffffffffff191681526020019081526020016000206001820181548110151561085e57fe5b906000526020600020015460036000886fffffffffffffffffffffffffffffffff19166fffffffffffffffffffffffffffffffff19168152602001908152602001600020828154811015156108af57fe5b9060005260206000200181905550808060010191505061080a565b60036000876fffffffffffffffffffffffffffffffff19166fffffffffffffffffffffffffffffffff191681526020019081526020016000206001830381548110151561091357fe5b906000526020600020016000905560036000876fffffffffffffffffffffffffffffffff19166fffffffffffffffffffffffffffffffff1916815260200190815260200160002080548091906001900361096d91906115ea565b5060026000868152602001908152602001600020805490509150600090505b81811015610a2957856fffffffffffffffffffffffffffffffff191660026000878152602001908152602001600020828154811015156109c857fe5b90600052602060002090600291828204019190066010029054906101000a9004700100000000000000000000000000000000026fffffffffffffffffffffffffffffffff19161415610a1c57809250610a29565b808060010191505061098c565b8290505b60018203811015610b08576002600086815260200190815260200160002060018201815481101515610a5b57fe5b90600052602060002090600291828204019190066010029054906101000a9004700100000000000000000000000000000000026002600087815260200190815260200160002082815481101515610aae57fe5b90600052602060002090600291828204019190066010026101000a8154816fffffffffffffffffffffffffffffffff0219169083700100000000000000000000000000000000900402179055508080600101915050610a2d565b6002600086815260200190815260200160002060018303815481101515610b2b57fe5b90600052602060002090600291828204019190066010026101000a8154906fffffffffffffffffffffffffffffffff021916905560026000868152602001908152602001600020805480919060019003610b859190611616565b506001935050505092915050565b600030905090565b60608060008060016000866fffffffffffffffffffffffffffffffff19166fffffffffffffffffffffffffffffffff1916815260200190815260200160002080549050111515610c20576040517f08c379a0000000000000000000000000000000000000000000000000000000008152600401610c1790611ca0565b60405180910390fd5b6001806000866fffffffffffffffffffffffffffffffff19166fffffffffffffffffffffffffffffffff191681526020019081526020016000208054905003604051908082528060200260200182016040528015610c9257816020015b6060815260200190600190039081610c7d5790505b509150600090505b8151811015610dd057600060016000866fffffffffffffffffffffffffffffffff19166fffffffffffffffffffffffffffffffff1916815260200190815260200160002060018301815481101515610cee57fe5b9060005260206000200154815481101515610d0557fe5b906000526020600020018054600181600116156101000203166002900480601f016020809104026020016040519081016040528092919081815260200182805460018160011615610100020316600290048015610da35780601f10610d7857610100808354040283529160200191610da3565b820191906000526020600020905b815481529060010190602001808311610d8657829003601f168201915b50505050508282815181101515610db657fe5b906020019060200201819052508080600101915050610c9a565b8192505050919050565b60008060016000846fffffffffffffffffffffffffffffffff19166fffffffffffffffffffffffffffffffff1916815260200190815260200160002080549050141515610e5c576040517f08c379a0000000000000000000000000000000000000000000000000000000008152600401610e5390611c60565b60405180910390fd5b60016000836fffffffffffffffffffffffffffffffff19166fffffffffffffffffffffffffffffffff191681526020019081526020016000206000908060018154018082558091505090600182039060005260206000200160009091929091909150555060036000836fffffffffffffffffffffffffffffffff19166fffffffffffffffffffffffffffffffff191681526020019081526020016000206000908060018154018082558091505090600182039060005260206000200160009091929091909150555060019050919050565b6060600060016000846fffffffffffffffffffffffffffffffff19166fffffffffffffffffffffffffffffffff1916815260200190815260200160002080549050111515610fb0576040517f08c379a0000000000000000000000000000000000000000000000000000000008152600401610fa790611ca0565b60405180910390fd5b60016000836fffffffffffffffffffffffffffffffff19166fffffffffffffffffffffffffffffffff1916815260200190815260200160002080548060200260200160405190810160405280929190818152602001828054801561103357602002820191906000526020600020905b81548152602001906001019080831161101f575b50505050509050919050565b60606000805490508210151561105457600080fd5b600260008381526020019081526020016000208054806020026020016040519081016040528092919081815260200182805480156110f757602002820191906000526020600020906000905b82829054906101000a9004700100000000000000000000000000000000026fffffffffffffffffffffffffffffffff191681526020019060100190602082600f010492830192600103820291508084116110a05790505b50505050509050919050565b600080805490508310151561114d576040517f08c379a000000000000000000000000000000000000000000000000000000000815260040161114490611c80565b60405180910390fd5b600460008481526020019081526020016000208290806001815401808255809150509060018203906000526020600020016000909192909190915090600019169055506001905092915050565b60008080549050821015156111e4576040517f08c379a00000000000000000000000000000000000000000000000000000000081526004016111db90611c80565b60405180910390fd5b600060016000856fffffffffffffffffffffffffffffffff19166fffffffffffffffffffffffffffffffff1916815260200190815260200160002080549050111515611265576040517f08c379a000000000000000000000000000000000000000000000000000000000815260040161125c90611ca0565b60405180910390fd5b60036000846fffffffffffffffffffffffffffffffff19166fffffffffffffffffffffffffffffffff191681526020019081526020016000208290806001815401808255809150509060018203906000526020600020016000909192909190915055506002600083815260200190815260200160002083908060018154018082558091505090600182039060005260206000209060029182820401919006601002909192909190916101000a8154816fffffffffffffffffffffffffffffffff021916908370010000000000000000000000000000000090040217905550506001905092915050565b600080600060016000856fffffffffffffffffffffffffffffffff19166fffffffffffffffffffffffffffffffff19168152602001908152602001600020805490501115156113d2576040517f08c379a00000000000000000000000000000000000000000000000000000000081526004016113c990611ca0565b60405180910390fd5b600084908060018154018082558091505090600182039060005260206000200160009091929091909150908051906020019061140f929190611650565b5050600160008054905003905060016000846fffffffffffffffffffffffffffffffff19166fffffffffffffffffffffffffffffffff191681526020019081526020016000208190806001815401808255809150509060018203906000526020600020016000909192909190915055506002600082815260200190815260200160002080600181540180825580915050906001820390600052602060002090600291828204019190066010027f6e6f6e6500000000000000000000000000000000000000000000000000000000909190916101000a8154816fffffffffffffffffffffffffffffffff02191690837001000000000000000000000000000000009004021790555050600191505092915050565b60008060016000846fffffffffffffffffffffffffffffffff19166fffffffffffffffffffffffffffffffff19168152602001908152602001600020805490501115156115a4576040517f08c379a000000000000000000000000000000000000000000000000000000000815260040161159b90611ca0565b60405180910390fd5b6001806000846fffffffffffffffffffffffffffffffff19166fffffffffffffffffffffffffffffffff1916815260200190815260200160002080549050039050919050565b8154818355818111156116115781836000526020600020918201910161161091906116d0565b5b505050565b81548183558181111561164b57600101600290048160010160029004836000526020600020918201910161164a91906116d0565b5b505050565b828054600181600116156101000203166002900490600052602060002090601f016020900481019282601f1061169157805160ff19168380011785556116bf565b828001600101855582156116bf579182015b828111156116be5782518255916020019190600101906116a3565b5b5090506116cc91906116d0565b5090565b6116f291905b808211156116ee5760008160009055506001016116d6565b5090565b90565b60006117018235611e4a565b905092915050565b60006117158235611e76565b905092915050565b600082601f830112151561173057600080fd5b813561174361173e82611d08565b611cdb565b9150808252602083016020830185838301111561175f57600080fd5b61176a838284611e8a565b50505092915050565b600061177f8235611e80565b905092915050565b60006020828403121561179957600080fd5b60006117a7848285016116f5565b91505092915050565b600080604083850312156117c357600080fd5b60006117d1858286016116f5565b92505060206117e285828601611773565b9150509250929050565b600080604083850312156117ff57600080fd5b600083013567ffffffffffffffff81111561181957600080fd5b6118258582860161171d565b9250506020611836858286016116f5565b9150509250929050565b60006020828403121561185257600080fd5b600061186084828501611773565b91505092915050565b6000806040838503121561187c57600080fd5b600061188a85828601611773565b925050602061189b85828601611709565b9150509250929050565b6118ae81611dde565b82525050565b60006118bf82611d68565b8084526020840193506118d183611d34565b60005b82811015611903576118e7868351611a42565b6118f082611daa565b91506020860195506001810190506118d4565b50849250505092915050565b600061191a82611d73565b80845260208401935061192c83611d41565b60005b8281101561195e57611942868351611a51565b61194b82611db7565b915060208601955060018101905061192f565b50849250505092915050565b600061197582611d7e565b8084526020840193508360208202850161198e85611d4e565b60005b848110156119c75783830388526119a9838351611a96565b92506119b482611dc4565b9150602088019750600181019050611991565b508196508694505050505092915050565b60006119e382611d89565b8084526020840193506119f583611d5b565b60005b82811015611a2757611a0b868351611b71565b611a1482611dd1565b91506020860195506001810190506119f8565b50849250505092915050565b611a3c81611dfe565b82525050565b611a4b81611e0a565b82525050565b611a5a81611e36565b82525050565b6000611a6b82611d9f565b808452611a7f816020860160208601611e99565b611a8881611ecc565b602085010191505092915050565b6000611aa182611d94565b808452611ab5816020860160208601611e99565b611abe81611ecc565b602085010191505092915050565b6000601882527f546865207573657220686173206265656e20696e6974656400000000000000006020830152604082019050919050565b6000600c82527f6f7574206f662072616e676500000000000000000000000000000000000000006020830152604082019050919050565b6000601582527f5468652075736572206973206e6f20696e6974656400000000000000000000006020830152604082019050919050565b611b7a81611e40565b82525050565b6000602082019050611b9560008301846118a5565b92915050565b60006020820190508181036000830152611bb581846118b4565b905092915050565b60006020820190508181036000830152611bd7818461190f565b905092915050565b60006020820190508181036000830152611bf9818461196a565b905092915050565b60006020820190508181036000830152611c1b81846119d8565b905092915050565b6000602082019050611c386000830184611a33565b92915050565b60006020820190508181036000830152611c588184611a60565b905092915050565b60006020820190508181036000830152611c7981611acc565b9050919050565b60006020820190508181036000830152611c9981611b03565b9050919050565b60006020820190508181036000830152611cb981611b3a565b9050919050565b6000602082019050611cd56000830184611b71565b92915050565b6000604051905081810181811067ffffffffffffffff82111715611cfe57600080fd5b8060405250919050565b600067ffffffffffffffff821115611d1f57600080fd5b601f19601f8301169050602081019050919050565b6000602082019050919050565b6000602082019050919050565b6000602082019050919050565b6000602082019050919050565b600081519050919050565b600081519050919050565b600081519050919050565b600081519050919050565b600081519050919050565b600081519050919050565b6000602082019050919050565b6000602082019050919050565b6000602082019050919050565b6000602082019050919050565b600073ffffffffffffffffffffffffffffffffffffffff82169050919050565b60008115159050919050565b60007fffffffffffffffffffffffffffffffff0000000000000000000000000000000082169050919050565b6000819050919050565b6000819050919050565b60007fffffffffffffffffffffffffffffffff0000000000000000000000000000000082169050919050565b6000819050919050565b6000819050919050565b82818337600083830152505050565b60005b83811015611eb7578082015181840152602081019050611e9c565b83811115611ec6576000848401525b50505050565b6000601f19601f83011690509190505600a265627a7a72305820fa7d72fd1b65809b0f7a8d5d4b3f0a628c09cc83bb241a1188a36c4228855bf86c6578706572696d656e74616cf50037",
  "source": "pragma experimental ABIEncoderV2;\npragma solidity ^0.4.19;\n\ncontract Moment{\n    bytes [] private moments_ipfs;  // moments from first to end\n\n    mapping(bytes16 => uint[]) private  users_ipfs; // mappint for chain of users' moments\n    mapping(uint => bytes16[]) private moments_likes;    // who like this momens\n    mapping(bytes16 => uint[]) private users_likes;\n    mapping(uint => bytes32[]) private moments_replys; // replys of moment\n    \n    constructor(Moment) public{\n        moments_ipfs.push('not-available');\n    }\n    \n    function getAddress() public view returns(address addr){\n        return address(this);\n    }\n\n    function initMoment(bytes16 name) public returns(bool success){\n        require(users_ipfs[name].length == 0,'The user has been inited');\n        users_ipfs[name].push(0);\n        users_likes[name].push(0);\n        \n        return true;\n    }\n    \n    // new moments is posting \n    function postNewMoment(bytes ipfsHash, bytes16 name) public returns(bool success){\n        require(users_ipfs[name].length > 0,'The user is no inited');\n        moments_ipfs.push(ipfsHash);\n        uint index = moments_ipfs.length -1;\n        users_ipfs[name].push(index);\n        moments_likes[index].push('none');\n        // moments_replys[index].push('none');\n        return true;\n    }\n\n    function getMomentsLikes(uint index) public view returns (bytes16[] users){\n        require(index < moments_ipfs.length);\n        return moments_likes[index];\n    }\n\n    function getMomentsReplys(uint index) public view returns(bytes32[] replys){\n        require(index < moments_ipfs.length);\n        return moments_replys[index];\n    }\n    \n    function getUserLikes(bytes16 name)public view returns(uint[] indexs){\n        require(users_ipfs[name].length > 0);\n        return users_likes[name];\n    }\n    \n    function LikeThisMoment(bytes16 name, uint index) public returns(bool success){\n        require(index < moments_ipfs.length,'out of range');\n\t\trequire(users_ipfs[name].length > 0,'The user is no inited');\n\t\tusers_likes[name].push(index);\n        moments_likes[index].push(name);\n        return true;\n    }\n\n    function replythisMoment(uint index, bytes32 ipfsHash) public returns(bool success){\n        require(index < moments_ipfs.length,'out of range');\n        moments_replys[index].push(ipfsHash);\n        return true;\n    }\n    \n    function UnlikeThisMoment(bytes16 name, uint index) public returns(bool success){\n        require(index < moments_ipfs.length,'out of range');\n        require(users_ipfs[name].length > 0,'The user is no inited');\n        \n        uint _index = 0;\n        uint len = users_likes[name].length;\n        \n        // 1.\n        for(uint i = 0 ; i < len ; i++){\n            if(users_likes[name][i] == index){\n                _index = i;\n                break;\n            }\n        }\n        for (i = _index; i<len-1; i++) {\n            users_likes[name][i] = users_likes[name][i+1];\n        }\n        delete users_likes[name][len-1];\n        users_likes[name].length--;\n\n        \n        // 2.\n        len = moments_likes[index].length;\n        for( i = 0 ; i < len ; i++){\n            if(moments_likes[index][i] == name){\n                _index = i;\n                break;\n            }\n        }\n        for (i = _index; i<len-1; i++) {\n            moments_likes[index][i] = moments_likes[index][i+1];\n        }\n        delete moments_likes[index][len-1];\n        moments_likes[index].length--;\n        return true;\n    }\n\n    \n    function getMomentsCount() public view returns(uint count){\n        return moments_ipfs.length - 1; // init with 'not-available'\n    }\n    \n    function getUserMomentsCount(bytes16 name) public view returns(uint count){\n        require(users_ipfs[name].length > 0,'The user is no inited');\n        return users_ipfs[name].length -1 ; // init with 0 \n    }\n    \n    function getMomentsByIndex(uint index) public view returns (bytes ipfsHash){\n        require(index < moments_ipfs.length,'out of range');\n        return moments_ipfs[index];\n    }\n    \n    function getMomentsByUsername(bytes16 name) public view returns(bytes [] ipfsHashs){\n        require(users_ipfs[name].length > 0,'The user is no inited');\n        bytes [] memory ipfses = new bytes[](users_ipfs[name].length-1) ;\n        for(uint i = 0; i < ipfses.length ; i++){\n            ipfses[i] = moments_ipfs[users_ipfs[name][i+1]];\n        }\n        return ipfses;\n    }\n\n    function getUserMomentsIndexByUsername(bytes16 name) public view returns(uint [] indexs){\n    \trequire(users_ipfs[name].length > 0,'The user is no inited');\n    \treturn users_ipfs[name];\n    }\n    \n    \n}",
  "sourcePath": "/Users/guyunquan/truffle-webpack-ipfs-bootstrap/contracts/moments.sol",
  "compiler": {
    "name": "solc",
    "version": "0.4.24+commit.e67f0147.Emscripten.clang"
  },
  "schemaVersion": "2.0.1",
  "updatedAt": "2018-12-31T08:04:39.420Z"
}